:020000040800F2
:100000000010002079350008F9340008FB3400089E
:1000100000000000000000000000000000000000E0
:10002000000000000000000000000000FD34000897
:100030000000000000000000FF3400080135000847
:10004000C935000800000000C9350008C93500089E
:10005000C9350008C9350008C9350008C935000888
:1000600000000000C9350008C9350008C93500087E
:10007000C9350008C9350008C9350008000000006E
:10008000C935000800000000000000000935000824
:1000900000000000C9350008C9350008C93500084E
:1000A00000000000C935000800000000C935000844
:1000B0000000000000000000000000000000000040
:1000C00010B5064C2378002B07D1054B002B02D02E
:1000D000044800E000BF0123237010BD040000208D
:1000E0000000000024360008044B10B5002B03D09C
:1000F0000349044800E000BF10BDC04600000000F6
:100100000800002024360008002243088B4274D3E4
:1001100003098B425FD3030A8B4244D3030B8B4208
:1001200028D3030C8B420DD3FF22090212BA030C11
:100130008B4202D31212090265D0030B8B4219D3F2
:1001400000E0090AC30B8B4201D3CB03C01A524112
:10015000830B8B4201D38B03C01A5241430B8B425A
:1001600001D34B03C01A5241030B8B4201D30B0343
:10017000C01A5241C30A8B4201D3CB02C01A52416A
:10018000830A8B4201D38B02C01A5241430A8B422D
:1001900001D34B02C01A5241030A8B4201D30B0216
:1001A000C01A5241CDD2C3098B4201D3CB01C01A30
:1001B000524183098B4201D38B01C01A524143093A
:1001C0008B4201D34B01C01A524103098B4201D328
:1001D0000B01C01A5241C3088B4201D3CB00C01A95
:1001E000524183088B4201D38B00C01A524143080D
:1001F0008B4201D34B00C01A5241411A00D2014632
:10020000524110467047FFE701B5002000F006F8A4
:1002100002BDC0460029F7D076E770477047C04658
:100220008446081C6146FFE71FB500F043FA00282A
:1002300001D40021C8421FBD10B500F0C5F94042ED
:10024000013010BD10B500F035FA002801DB0020A8
:1002500010BD012010BDC04610B500F02BFA0028DB
:1002600001DD002010BD012010BDC04610B500F01A
:10027000D3F9002801DC002010BD012010BDC046CC
:1002800010B500F0C9F9002801DA002010BD0120E6
:1002900010BDC046F8B54746CE4643025B0A44004F
:1002A000C20F9C464800DD004B02240E5B0A000E84
:1002B00080B5984626009146C90FDB00271A8A426E
:1002C00029D0002F15DD00284AD1002B00D095E061
:1002D000ED08FF2C00D188E06B025B0AE6B25B02FE
:1002E000F605580A3043D20710430CBC9046994695
:1002F000F8BD002F00D087E0601CC0B2012800DCF0
:10030000B6E0EE1A720100D5C5E0002E3DD1002204
:1003100000260023E3E7002F00DC96E000285DD0F4
:10032000FF2C60D08022D20413431B2F00DDECE0B1
:100330002022D21B18009340F8405A1E93410343D9
:10034000ED186B017BD50134FF2C00D1B7E0012201
:1003500007262A406B089A4D1D4015432E4029E080
:10036000FF2CB5D08022D20413431B2F00DDB2E056
:100370002022D21B19009340F9405A1E93410B438F
:10038000ED1A6B015BD5AD01AE09300001F082FBC7
:1003900005388640844265DC041B3300202001348C
:1003A000E340041BA640751EAE41334307261D00E3
:1003B00000241E4001224B461A40002E04D00F2379
:1003C0002B40042B00D004356B0100D480E70134AE
:1003D000E6B2FF2C2FD1FF26002380E7002B52D15D
:1003E000FF2C00D074E70A00ED08002DF3D0802325
:1003F000DB032B435B025B0AFF2670E7013F002F04
:10040000BED0FF2CB1D163E7002C47D0FF2869D0C4
:100410008024E4047A4225431B2A00DDC5E02C0039
:100420002026D440B21A95406A1E954125435D1B93
:1004300004008946A5E7AB015B0A50E700240122CE
:100440004B461A406B07BAD142E7002F3BD101342B
:10045000E0B201284ADDFF2CBDD00726ED186D085B
:100460002E40A7E70723574D241A35401E40A1E729
:10047000002C1BD1002D6ED1002B00D19AE00A0078
:100480001D003C0024E7013F002F00D158E7FF2C5E
:1004900000D04AE7A7E75E1B894676E7002D1CD10E
:1004A0000A00FF281FD004001D0011E7002D5DD1B8
:1004B000002B17D180230022DB03FF260FE70A0061
:1004C000FF2600230BE7002C21D1002D66D1FF2849
:1004D000E9D11D0087E7012352E77A1CA7D0FA4330
:1004E000FF2899D10A001D00FF24F1E6002E21D13A
:1004F000002D4FD0002B4CD0ED186B019ED5314B09
:1005000007362E4001241D4054E7012318E7FF2839
:10051000DFD08024E4047F4225431B2F4DDC2026BE
:10052000F61B2C00B540FC406A1E95412543ED1892
:10053000040006E7002DCCD0002B00D153E780212A
:100540006046C903084203D04046084200D11D005E
:100550000121114047E7002B00D1B9E6EA1A50010A
:1005600025D507265D1B2E40894623E7FF24002B57
:1005700000D1ADE680226046D203104204D040464E
:10058000104201D11D00894601224B46FF241A402A
:100590009EE62B00DD080A0000249DE67A1CC6D0EA
:1005A000FF43FF28B9D11D001DE701253FE7151EB8
:1005B00000D044E70022002391E60125B7E7C046BA
:1005C000FFFFFF7DFFFFFFFB70B542004E024C00B6
:1005D00045026D0A120EC30F760A240EC90FFF2AB8
:1005E0000FD0FF2C11D00120A24200D070BDB54227
:1005F000FCD18B420DD0002AF8D12800451EA8411D
:10060000F4E70120002DF1D1EBE70120002EEDD120
:10061000E9E70020EAE7C04670B54A004E0245020D
:1006200044006D0A240EC30F760A120EC90FFF2C68
:1006300015D0FF2A0ED0002C15D1002A01D1002E92
:100640001CD0002D14D08B4227D00220013B184033
:10065000013870BD002EEED002204042F9E7002D97
:10066000FAD1FF2A0ED0002A0ED1002EEDD00BE0D9
:1006700001230139994308000130EAE70020002DE9
:10068000E7D0E2E7002EE7D18B42DED1944205DDD0
:100690000221581E08400138DBE70024A24204DC96
:1006A000B542D2D80020B542D3D2581E0123984378
:1006B0000130CEE730B5420044024D02C30F48007E
:1006C000640A120E6D0A000EC90FFF2A12D0FF280D
:1006D0000CD0002A12D1002819D1002D17D1002CDE
:1006E0002BD00220013B1840013826E0002DF0D02D
:1006F000022022E0002CFBD1FF281FD000281FD1B0
:10070000002D1DD10220013B1840013815E0002CBE
:100710000ED08B42E5D10022904204DCAC42E0D8FE
:100720000020AC4209D2581E01239843013004E056
:100730000123013999430800013030BD002DD7D184
:100740008B42CED18242E7DD0221581E084001389B
:10075000F3E7C046F0B54E4657464546DE46E0B59F
:1007600043025B0A450083B00F1C99462D0EC60F4D
:10077000002D57D0FF2D24D08020DB00C00418436B
:10078000002381469A469B467F3D7C027A00FB0F00
:10079000640A120E984623D0FF2A4BD0E30080242F
:1007A0000020E4047F3A1C43AD186B1C47460193BC
:1007B000534677403A000F2B48D87D499B00CB58D1
:1007C0009F46002B00D085E008339A46063B9B46A7
:1007D0007C027A00FB0FFF25640A120E9846DBD1DB
:1007E000002C00D090E0524601231A43924601208B
:1007F000DBE74C4658461700022824D0032800D1D6
:10080000CFE00022002301284DD15802D205400A32
:10081000FF071043384303B03CBC90469946A246BC
:10082000AB46F0BD002B5BD104239A46033B002569
:100830009B46AAE7FF35002C60D1524602231A439B
:1008400092460220B1E7FF220023DEE74B461B0C55
:100850009C464B462604360C180461463300220C95
:100860006446000C43434E435043544380191A0CD2
:100870001218964203D9802149028C4664441B0415
:100880001B0C1004C01883015E1EB341800E184378
:10089000130C1B199B0103431C00230179D5012371
:1008A00062081C401443019A7F32002A4DDD630721
:1008B00004D00F232340042B00D00434230103D59C
:1008C0003C4B019A1C408032FE2ABCDCA3015B0A2F
:1008D000D2B29AE70C239A46093BFF259B4654E780
:1008E000180001F0D7F84A46431F76259A400023A6
:1008F0006D4291462D1A9A469B4646E7524603237F
:100900001A439246032050E7200001F0C3F8431F2A
:100910002D1A9C40763D002047E780230027DB030B
:10092000FF2272E7424666E74C463200584662E7CD
:1009300080234A46DB031A4222D01C4220D12343A3
:100940005B025B0A4746FF225FE701239A1A1B2AD4
:1009500021DC23000199D3409E318C401A002300F2
:100960005C1EA34113435A0704D00F221A40042AE5
:1009700000D004335A0111D49B015B0A002244E7E2
:1009800080234A46DB0313435B025B0A3700FF22E6
:100990003BE7019587E70022002336E70122002389
:1009A00033E78023DB0323435B025B0AFF222CE750
:1009B000A4360008FFFFFFF7F8B54746CE464400CF
:1009C000C20F80B547024802400A84466646480086
:1009D0007F0A240EF60025009046FB00000EC90F8A
:1009E000B146FF2800D185E001267140261A9142C8
:1009F00057D0002E43DD002800D07FE04946002973
:100A000000D1AAE0013E002E00D0F7E05B1A5A01A7
:100A100000D48BE09B019C09200001F03BF80538D5
:100A20008440854200DDD3E0451B230020200135B2
:100A3000EB40451BAC40621E944123430724002534
:100A40001C40012241460A40002C04D00F211940CD
:100A5000042900D00433590100D480E00135ECB200
:100A6000FF2D00D0A3E0FF2400235B02E405580A19
:100A7000D207204310430CBC90469946F8BD002E87
:100A800074D1601CC0B2012800DCA7E04A469C1A61
:100A9000620100D5B6E0002CBED100220024002364
:100AA000E3E7002E00DC85E0002846D0FF2C49D08B
:100AB00080224846D2041043814601221B2E09DCC5
:100AC00020204C46801B84404A462000F240441EB1
:100AD000A04102439B185A0128D50135FF2D00D1B2
:100AE000A8E00122072494491A405B080B401343F5
:100AF0001C40A6E7002E00D078E775E7FF2C54D005
:100B000080224946D2041143894601221B2E09DC6A
:100B100020214846891B88404A460100F240481E71
:100B200081410A439B1A5A0100D573E701224146CD
:100B30000A40590700D089E711E04846002858D1FB
:100B4000FF2C0CD1DB08002B00D18CE78020C003E8
:100B500003435B025B0AFF2487E7FF2C25D0DB08F9
:100B6000FF2DF0D05B025B0AECB27EE7002C4DD08B
:100B7000FF2818D08024E404724223431B2A00DD9E
:100B8000C4E01C002025D440AA1A93405A1E934169
:100B900023434A460500D31A884638E7721CF8D02A
:100BA000F243FF28EAD10A004B46FF25D7E79B0115
:100BB0005B0A5AE7002E41D1651CE9B2012945DDE7
:100BC000FF2D00D14FE707244B445B081C4038E75A
:100BD00007225A4B2D1A2340144032E7002C1DD116
:100BE000002B7AD14B46002B00D191E00A00002562
:100BF000B5E7013E002E19D14B446CE7FF2C84D1A0
:100C0000FF25ACE74A468846D41A05E7002BC5D134
:100C10000A00FF28C8D005004B46A0E7002B49D1A9
:100C20004B46002B77D00A00FF2598E7FF2C00D019
:100C300043E787E70A00FF24002316E7002C15D1BD
:100C4000002B57D1FF28E6D14B467BE7002C20D163
:100C5000002B57D04946002953D04B445A0168D540
:100C60000724364A1C4001251340EAE6FF28EBD052
:100C70008022D204764213431B2E53DC2025AD1B69
:100C80001A00AB40F2405C1EA34113434B440500E5
:100C900021E7002BD8D04946002900D152E7802116
:100CA000C9030F4200D14DE76046084200D049E732
:100CB0004B4647E74846FF25002800D14FE78022F2
:100CC000D203174204D06046104201D14B468846F9
:100CD00001224146FF250A4041E7484600281FD02F
:100CE0001A1A500120D54A460724D31A1C408846B8
:100CF0000025A6E6741CC9D0F643FF28BCD14B469C
:100D000020E799464B460025DB082BE7012340E707
:100D100000220023A9E680230022DB03FF24A4E6AF
:100D200000251CE70123B1E7002AF1D013000025BC
:100D3000FCE60025FAE6C046FFFFFF7DFFFFFFFB54
:100D400041024200C30F490A120E00207E2A0DD92B
:100D50009D2A0CD8802000040143952A0ADC9620A5
:100D6000821AD1404842002B00D108007047034A44
:100D70009818FBE7963A9140F4E7C046FFFFFF7FE3
:100D800070B5041E34D000F085FE9E22121A962AF9
:100D900007DCD2B208282EDD083884406002400A01
:100DA00021E0992A09DD030021001B3399404B1EE5
:100DB000994105231B1ADC400C43052801DD431F24
:100DC0009C4023000D490B40650709D00F252C409E
:100DD000042C05D004335C0102D59F220B40121A6B
:100DE0009B01580AD2B24002D205400A104370BD9E
:100DF00000220020F7E76002400AF4E7FFFFFFFB54
:100E0000F0B55746DE464E464546E0B583460700F8
:100E10000E03480085B092461C00360B400DCD0FE6
:100E2000002800D19DE0954B984239D08023F600F0
:100E30001B041E43924A7B0F33439946944603009A
:100E40006344009300230026FF00029323031B0B3F
:100E500098466300E40F52465B0D019400D1B3E065
:100E600086498B4200D19EE04246D1008022120486
:100E70000A435146490F11438B46814952468C46DD
:100E800000996344CB1A0021D20000932B006340E9
:100E90009A460F2E00D905E17A4BB6009B599F4622
:100EA0005B463343994600D0B8E00223082600276A
:100EB00000900293CAE7CB463A0002990195019B44
:100EC0009A46022927D0032900D180E2012944D083
:100ED0006D49009B8C4663441C00002C38DD530791
:100EE00000D013E2D2085B46DB0109D55946674BB7
:100EF00019408B468021C9008C46009B63441C002E
:100F0000634B9C4207DC5B4664055F075B0217434B
:100F10001B0B620D02E000230027584A00211B032F
:100F20001C0B0B0D1B05234314055A4A38001340B4
:100F30001C4353466400DB0764081C43210005B0D2
:100F40003CBC90469946A246AB46F0BD01225242B7
:100F500001231B1B382B00DCADE1002200230027FE
:100F6000DCE75B46334399465ED0002E00D18AE130
:100F7000300000F08FFD03000B3B1C2B00DD7BE1FC
:100F80001D22D31A5A460100DA4008398E40130058
:100F90005F46334399468F403F4B00261B1A009310
:100FA0000023029352E7414653460B433B499B467D
:100FB0008C46009B634400935B46002B3BD102238D
:100FC00000221E43022161E7434613439B4637D06C
:100FD0004346002B00D162E1404600F05BFD030078
:100FE0000B3B1C2B00DD53E102004146083A9140C7
:100FF00088461D21CB1A5146D9400B0041460B4370
:101000009B46534693401A00009B25499C466044EA
:1010100003008C4663440093002137E70323B14665
:1010200000900C26029311E700230093013304265D
:10103000002702930AE70323C3461E43032125E743
:1010400001331E430022012120E700239A4680231A
:1010500000271B03094A61E7802349461B03194205
:1010600000D1E2E05946194200D0DEE00B431B03F9
:1010700017001B0BA246014A50E7C046FF070000BD
:1010800001FCFFFFE4360008FF030000FFFFFFFE46
:10109000FE070000FFFF0F800DFCFFFF01F8FFFFC0
:1010A000F3030000D94500D9CBE000D1C6E03C00F5
:1010B00048460027009B013B00935B46160E1B022F
:1010C0001E431302984633041B0C9946310C0191C0
:1010D000FFF7A0F84A4642430B04210C05001943D0
:1010E0008A4207D98919013D8E4203D88A4201D923
:1010F000851E8919881A0199FFF78CF809048C4616
:101100004A46210464464243090C030021438A42B3
:1011100004D98919013B8E4200D8F1E02D041D430A
:10112000AB464346891A4246280C12041D0C5B4606
:10113000140C22001B041B0C5A4303946B434443BE
:10114000029568431B19150CEB189C4203D98024A7
:101150006402A44660441C0C15041B042D0C2018CA
:101160005D19814277D373D00C1AA24A7D1BAF421E
:10117000BF419446009B7F426344E01B1C008642B3
:1011800000D1DBE00199FFF745F84A4642430B04E2
:10119000290C070019438A4207D98919013F8E4259
:1011A00003D88A4201D9871E8919881A0199FFF745
:1011B00031F809044A46894629044D464243090C40
:1011C000030029438A4207D98919013B8E4203D87B
:1011D0008A4201D9831E89193F04891A3A00039F64
:1011E0001A43380013041B0C584381460298150C0F
:1011F0006F43434345434846000C8446DB19634430
:101200009F4203D9802040028446654448461F0C13
:1012100000041B04000C7D191818A94200D284E0B8
:1012200000D17FE001231A4357E680234A461B037F
:1012300013431B031B0BAA466F4A6FE6BA4200D941
:1012400035E74B46DC0758087B081C43FF0734E7AB
:101250000024AF4289D247444745A4415B466442DB
:10126000A4196418013BA6421ED2A0426DD800D139
:10127000B6E0241A9B4678E703005A46283B9A407A
:101280000027914688E6584600F004FC203072E6BC
:1012900003005246283B9A4093460022B4E650464B
:1012A00000F0F8FB20309AE6A642E2D1B845DCD93E
:1012B000341A9B4659E71F2B65DC504C0099A44615
:1012C0005C46614408008C4011008240D940501EA9
:1012D00082410C4314435A46DA401300620709D096
:1012E0000F222240042A05D02200141D9442894175
:1012F00049425B181A0262D50122002300270DE63D
:101300008A4200D80AE7831E891907E70F23134092
:10131000042B00D1E6E5171D9742924153429B44AE
:10132000FA08E0E5002800D1D7E57118531EB14254
:1013300027D3A94215D358D01A0073E7002B00DC3D
:1013400004E6012300229B44CDE5022347444745A0
:1013500089415B429C46494289190C19E344241A8D
:1013600003E743465F0047459B41B8465B429E19F1
:10137000023A8919A94200D054E7404500D051E70C
:10138000ABE51A00F6E71F215F4649420C1BE74018
:10139000202B07D01A49009B8C46634418005B46FB
:1013A00083401A43501E82413A43072700231740C7
:1013B00009D00F21002311401400042995D12200E7
:1013C0005F075B021B0BD20817430022A6E58023B0
:1013D00059461B030B431B0317001B0B064A9DE5D5
:1013E000BD42B2D89B460024BFE68045B9D31A005F
:1013F000C3E7C046FF030000FF0700001E04000013
:101400003E040000F0B55746DE464E464546E0B580
:10141000834606000F03480087B092461D003F0B2D
:10142000400DCC0F002800D16FE0DE4B984238D041
:101430008023FF001B041F43730F3B430193DA4BD0
:101440000027994600239B46F60081442B03690040
:101450001B0B52469846490DED0F002900D185E03F
:10146000D04B994200D173E04346DA0080231B043D
:1014700013435246CC48520F844613435246002031
:101480006144D20089442100694000918C460121C9
:1014900049448A460F2F00D990E0C449BF00CF5974
:1014A000BF465B463B43019300D06AE10223082715
:1014B000002681469B46C9E732005846019B61469B
:1014C0000091022800D175E0032800D1FEE1012837
:1014D00000D02CE100230027002600253F032A0D21
:1014E0003F0BB34812053A4302401B051343009AD1
:1014F0005B00D1075B080B433000190007B03CBC10
:1015000090469946A246AB46F0BD5B463B430193ED
:1015100000D12FE1002F00D1A5E1380000F0BAFA88
:1015200003000B3B1C2B00DD96E11D22D31A5A460B
:101530000100DA405E4608398F4013008E403B437D
:1015400001939C4B00271B1A994600239B467DE77D
:10155000414653460B4393498C46E144002B00D04F
:101560001AE102220220174300228CE7134300D124
:101570000DE14346002B00D181E1404600F08AFA9C
:1015800002000B3A1C2A00DD72E1010043460839D3
:101590008B4098461D239A1A5346D3401A0043465F
:1015A000134352468A404946081A82498946814473
:1015B000002068E77B4B002700268EE7140C1204FE
:1015C000120C1100370C3604350C794328008C4678
:1015D0002E0060436044834656432100300C804611
:1015E0005846794340440291844506D98846802173
:1015F00049028C46E044414602913604010C360C07
:1016000000048B4681191E0C1B041B0C039119004E
:1016100079438C46280075436544A8465843050C19
:1016200045447743A94203D9802149028C46674447
:10163000290C8C4639000004000C2D042D1861443F
:10164000AB4405915946049101990F043F0C080CD5
:10165000390051434243904602008C46090C8B46A8
:1016600062437C4344445C44A04503D98021490241
:1016700088464244210C884661460904090C8C4680
:1016800039005943434370437E430F0CF61824043A
:10169000BE19644442448C46B34203D980235B02A2
:1016A00098464044029B61469846049B3704434455
:1016B0009B46AB45AD416B420D0405992D0C8C4604
:1016C0007F196744FD18A8465D462D19A542A4411F
:1016D00093466442A446C344DC448F42BF419845CC
:1016E0009B4193459241A445A4415B427F421F43E5
:1016F000360C52426442BF192243BF186246381862
:101700004302D20D039913436A020A43501E8241D9
:101710006146ED0D2A434E023243D90100D4B3E0B5
:101720000126500832400243DE0732435B08224C58
:101730005444002C62DD510709D00F2010400428CA
:1017400005D0101D9042924152429B180200D901CF
:1017500004D580241948E4000340544418488442C6
:1017600000DD27E75E075B02D2081F0B6305164307
:101770005B0DB2E6002399460133042700269B4601
:1017800064E60323019781460C279B465EE601220F
:1017900001201743002276E6032303201F4343461C
:1017A00071E6C046FF07000001FCFFFF2437000878
:1017B000FFFF0F800DFCFFFFFF030000FFFFFFFE98
:1017C000FE0700000023802700933F030026434BC1
:1017D00083E6019B3200A446584670E6AC466EE6AE
:1017E000802701993F0339422DD03B422BD11F4323
:1017F0003F033F0B00951600384B6EE601252D1B6D
:10180000382D00DD66E61F2D40DC35481C005044B5
:10181000160082408440EE40501E824134431443FF
:10182000EB40620709D00F222240042A05D0220093
:10183000141D9442804140421B181A023ED50123D8
:101840000027002649E68027019B3F031F433F03F3
:101850003F0B0094214B40E603005A46283B9A4038
:10186000002601926DE6584600F014F9203057E644
:1018700003005246283B9A401300002293E650464C
:1018800000F008F920307BE6CA4650E71F201E0012
:101890004042041BE640202D03D0124C5444A34088
:1018A0001A43501E8241324307260027164009D0B2
:1018B0000F200023104014000428B9D122005E0735
:1018C0005B021F0BD2081643002306E680273F0366
:1018D0001F433F033F0B1600004BFEE5FF070000D0
:1018E0001E0400003E0400004100090E4B1C70B5B0
:1018F000DBB24602750AC40F012B14DDE0239B0006
:101900006D07360BCB1800210A0D280012051C4D5F
:1019100032435B052A405B0813435B00E4075B0826
:101920002343190070BD002914D1002D1ED02800BA
:1019300000F0B0F80A281CDC0B232A001B1ADA403E
:10194000030015339D400F4B12031B1A5B05160B4A
:101950005B0DD8E7002D06D0320B802636036D07CD
:101960001643094BCFE7084B0026CCE7002300269F
:10197000C9E703002A000B3B9A400025E3E7C04675
:10198000FFFF0F8089030000FF070000F0B54C0047
:10199000640D0B03621C5B0A460F5205C90F1E4300
:1019A000C500520D012A29DD374BE718FE2F1CDC3C
:1019B000002F3BDD8001431E98410722F3006D0F8D
:1019C00003432B431A40002A04D00F221A40042A52
:1019D00000D004338022D2041A4024D00137FAB256
:1019E000FF2F02D09B01580A01E0FF220020400295
:1019F000D205400AC90710430843F0BD3543002C07
:101A000004D1002D0AD100220020F0E7002DECD0F7
:101A10008020C0033043FF22E9E7002400235B025B
:101A2000580AE2B2E3E7DB083C00F8E73B00173373
:101A3000F3DB80231B0433431E26F61B1F2E14DD0D
:101A400002225242D71B1A00FA401700202E04D05F
:101A50000E4A94466444A3401D432B005D1EAB41D7
:101A600007223B431A400027ADE7094A2800A21885
:101A7000954093406C1EA541F04007222B43034341
:101A80001A4000279FE7C04680FCFFFFA2FCFFFF33
:101A900082FCFFFF1C2101231B04984201D3000C90
:101AA00010391B0A984201D3000A08391B099842D1
:101AB00001D30009043902A2105C40187047C046E7
:101AC0000403020201010101000000000000000007
:101AD00010B5040000F0ACFEFA218900FEF714FBFB
:101AE00000F0B2FA012000222100404200F072FA18
:101AF000002010BD10B5064A136810210B43136077
:101B00000020FFF7E5FF01F08FFC002010BDC0466C
:101B100000200240024A1368013313607047C04638
:101B200024000020014B18687047C04624000020A4
:101B300030B583B00190FFF7F5FF0500019C631CF1
:101B400000D00134FFF7EEFF401BA042FAD303B0F0
:101B500030BD000030B583B004000023019303685A
:101B6000996803220A40012A0ED09968204A11423E
:101B700012D19A6801210A439A601E4B18681E49C7
:101B8000FEF7C2FA019015E01A68D2072DD4DA6880
:101B90001204EAD5002008E0636C1022134363644A
:101BA000A36C0F3A1343A364012003B030BD019B23
:101BB000013B0193019B002BF9D1FFF7B3FF050017
:101BC00023681B68DB070ED4FFF7ACFF401B02281D
:101BD000F6D9636C102213436364A36C0F3A13436A
:101BE000A3640120E1E70020DFE70020DDE7C04635
:101BF000170000800000002040420F0070B5041E56
:101C000000D1B0E0436C002B7DD0636CDB0600D5C7
:101C1000A3E021688B6804221A4000D09DE0636C29
:101C2000524803400630FF3003436364886803234F
:101C30000340012B6DD0CB6818208343A068034379
:101C4000CB6021680B699B009B08606803430B61B4
:101C50002168CB6846480340CB60A3699B03E169D8
:101C6000C9030B43216A48030343606B012857D023
:101C7000802040010343E06803432069022851D0DB
:101C80001343226B52001343626A012A4CD0A26AAA
:101C9000C221FF318A4202D0E16A0A43134321681C
:101CA000CA681A43CA60A26B802149058A420DD0D6
:101CB000012A0BD0022A09D0032A07D0042A05D012
:101CC000052A03D0062A01D0072A0AD120684169D3
:101CD00007229143416120684169A56B2A400A436C
:101CE00042612268D26823490A409A422BD0636C31
:101CF00012229343023A13436364A36C0F3A1343D3
:101D0000A36401202EE083644022835401F0A4FBED
:101D10007BE70B68DB079BD4CB681B0498D48AE76E
:101D20001000A7E70422ABE7002903D1802252026A
:101D30001343ACE7626C20210A436264A26C1F3932
:101D40000A43A264A3E70023A364636C03229343C2
:101D5000023A13436364002004E0636C10221343CF
:101D60006364012070BD0120FCE7C046FDFEFFFF5B
:101D70001902FEFFE7FF3F8310B5040003689B686C
:101D80005B0723D44023C35C012B21D040230122D5
:101D9000C254C369012B14D10020636C0D4A1A4050
:101DA00080235B00134363640023A3644022A35495
:101DB0002368243A1A602268936804210B439360D5
:101DC00010BDFFF7C7FE0028E7D0F9E70220F7E7CC
:101DD0000220F5E7FEF0FFFFF8B504000E004569AC
:101DE000082D04D00368DB68DB0719D40C25FFF746
:101DF00099FE070023681A6815421AD1731CF9D09E
:101E0000002E04D0FFF78EFEC01BB042F2D9636CE7
:101E100004221343636440230022E254032007E0BA
:101E2000436C20221343436440230022C254012008
:101E3000F8BD616C802292000A436264D968C022B6
:101E40001201114213D1226A002A10D11A68120716
:101E50000DD59A68520712D45A680C218A435A60E9
:101E6000636C0C4A13400432FF3213436364A3696A
:101E7000002B0DD123680C221A600020D8E7636C78
:101E8000202213436364A36C1F3A1343A364EEE759
:101E90000020CDE7FEFEFFFF0368186C70470000CE
:101EA00030B583B00400002301934033C35C012BA1
:101EB00000D181E040230122C25403689A6852078E
:101EC00070D43E4A4868904253D09A6A01200D6807
:101ED000A84002439A62A36B8022520593421ED00F
:101EE000012B1CD0022B1AD0032B18D0042B16D098
:101EF000052B14D0062B12D0072B10D02268506966
:101F0000072303408868984209D050690723984303
:101F10005061206842698D682B40134343610B6810
:101F20001A00103A012A01D9002040E0244A126820
:101F3000102B09D08023DB031343214A13600B6865
:101F4000102B04D0002032E080231B04F4E71D4B4B
:101F500018681D49FEF7D8F883001818430001934C
:101F600002E0019B013B0193019B002BF9D1002072
:101F70001DE09A6A01200D68A84082439A620B68AE
:101F80001A00103A012A01D9002010E00C4A126808
:101F9000102B05D00D4B1340094A1360002006E0BA
:101FA0000B4BF8E7436C202213434364012040238A
:101FB0000022E25403B030BD0220FBE70110000014
:101FC000082701400000002040420F00FFFFBFFF34
:101FD000FFFF7FFF70B5002811DB8408134DC0346C
:101FE000A400625903231840C000FC331E00864041
:101FF000B24389010B4083401343635170BDC0B2AB
:102000000F220240083A920806329200084BD31879
:102010005D6803242040C000FF2214008440A543D3
:1020200089010A4082402A435A60E7E700E100E064
:1020300000ED00E01F2318401E3B8340014A13605F
:102040007047C04600E100E001380A4B98420FD8C3
:10205000094A50600948036A1B021B0AC02109068D
:102060000B43036200239360073313600020704723
:102070000120FCE7FFFFFF0010E000E000ED00E0C2
:10208000F0B5C64600B582B0002338E0032600E074
:102090000026AE4035003D430234A400554EA55104
:1020A000554C25684246D4432E0026404A68D20348
:1020B00002D5424615432E004F4D2E606D682E000E
:1020C00026404A68920302D5424615432E004A4DE7
:1020D0006E60AD682E0026404A68D20202D54246A4
:1020E00015432E00444DAE60ED682C404A689202C4
:1020F00002D542462A4314003F4AD46001330A689D
:102100001400DC4071D001259D402A409046F5D056
:102110004C68022C01D0122C0ED1DC080834A4002B
:10212000275807261E40B6000F22B24097430A697F
:10213000B24016003E43265002685F00032426008A
:10214000BE40F643324094464A681440BC40624662
:10215000144304604C68621E012A03D9112C01D07B
:10216000122C10D184683440A446CC68BC4062462E
:10217000144384604468AC434A6812090125154041
:102180009D4025434560C46826408C68BC4034436C
:10219000C4604A68D200B1D5184DAE690124264307
:1021A000AE61AD692C400194019C9C08A51CAD005A
:1021B000104EAF5903251D40AD000F26AE40B7436A
:1021C0009026F605B04200D162E70D4EB04208D02D
:1021D0000C4EB04207D00C4EB04200D156E7052657
:1021E00057E7012655E7022653E702B004BC9046A4
:1021F000F0BDC04600000140000401400010024054
:102200000004004800080048000C0048002A01D1E2
:10221000816270478161FCE770B582B00400036899
:10222000DB0726D5AE4B5A680C231340042B18D07D
:10223000AB4B5A680C231340082B0ED06368012B5C
:102240003CD0002B51D1A64B1A68A6490A401A600F
:102250001A68A5490A401A6036E0A14B5B68DB03A7
:10226000ECD59F4B1B689B0303D56368002B00D103
:10227000ECE123689B0773D5994B5B680C221A42EB
:102280005DD0974B5A680C231340082B53D0E3685A
:10229000002B00D186E0924A136801210B431360A2
:1022A000FFF740FC05008E4B1B689B0771D4FFF7BE
:1022B00039FC401B0228F6D90320CAE1884A11687C
:1022C00080235B020B4313606368002B25D0FFF76C
:1022D00029FC0500824B1B689B03CAD4FFF722FC34
:1022E000401B6428F6D90320B3E1052B09D07C4BB1
:1022F0001A687C490A401A601A687B490A401A60C9
:10230000E2E7774B19688022D2020A431A60196803
:10231000802252020A431A60D6E7FFF703FC050049
:102320006F4B1B689B03A4D5FFF7FCFB401B642885
:10233000F6D903208DE16A4B5B68DB03A7D4684BB9
:102340001B689B0704D5E368012B01D0012080E1C5
:1023500063490B68F82293432269D20013430B6050
:1023600023681B0744D5E369002B2ED05C4A536ACF
:1023700001210B435362FFF7D5FB0500584B5B6A05
:102380009B0735D4FFF7CEFB401B0228F6D903206C
:102390005FE153490B68F82293432269D20013434B
:1023A0000B60DDE74E4A136801218B431360FFF792
:1023B000B9FB05004A4B1B689B07D1D5FFF7B2FB61
:1023C000401B0228F6D9032043E1454A536A012104
:1023D0008B435362FFF7A6FB0500414B5B6A9B07EB
:1023E00006D5FFF79FFB401B0228F6D9032030E1FA
:1023F00023685B0700D47FE0394BDB69DB001DD429
:10240000374AD169802040050143D161D369034037
:102410000193019B0125354B1B68DB0510D5A36893
:10242000012B21D0002B36D12D4B1A6A01218A4372
:102430001A621A6A03318A431A621AE00025EAE72F
:102440002A4A116880235B000B431360FFF76AFB85
:102450000600264B1B68DB05E1D4FFF763FB801BFE
:102460006428F6D90320F4E01D4A136A01210B43C6
:102470001362A368002B24D0FFF754FB0600184B0F
:102480001B6A9B0736D4FFF74DFB801B184B984205
:10249000F5D90320DDE0052B09D0114B1A6A012183
:1024A0008A431A621A6A03318A431A62E1E70C4BC3
:1024B0001A6A04210A431A621A6A03390A431A6221
:1024C000D7E7FFF72FFB0600054B1B6A9B0711D5CB
:1024D000FFF728FB801B064B9842F5D90320B8E094
:1024E00000100240FFFFFEFFFFFFFBFF00700040F7
:1024F00088130000012D33D02368DB0610D56369F3
:10250000012B33D0053351D1544A536B04218B43F3
:102510005363536BF4318B43A169C9000B4353637D
:10252000236A002B00D193E04C4A51680C220A40E8
:10253000082A00D18FE0022B4FD0484A136848493F
:102540000B401360FFF7EEFA0400444B1B689B013D
:102550007AD5FFF7E7FA001B0228F6D9032078E0C6
:102560003E4AD3693F490B40D361C5E73B4B5A6BA9
:1025700004210A435A635A6B03390A435A63FFF72B
:10258000D1FA0500354B5B6B9B0706D4FFF7CAFAFF
:10259000401B0228F6D903205BE030494B6BF82240
:1025A0009343A269D20013434B63B9E72B4B5A6B99
:1025B00004210A435A635A6B03398A435A63FFF76B
:1025C000B1FA0500254B5B6B9B07A9D5FFF7AAFA6B
:1025D000401B0228F6D903203BE0204A136820491B
:1025E0000B401360FFF79EFA05001C4B1B689B0114
:1025F00006D5FFF797FA401B0228F6D9032028E0FA
:10260000164BDA6A0F218A43E16A0A43DA625A6892
:1026100015490A40A16A606A01430A435A60196871
:10262000802252040A431A60FFF77CFA04000B4B25
:102630001B689B0106D4FFF775FA001B0228F6D928
:10264000032006E0002004E0002002E0012000E07A
:10265000002002B070BD0120FBE7C0460010024020
:10266000FFFFFFFEFFFFFFEFFFFFC2FF30B589B0A6
:1026700004AA174B180032C832C2110002680A605F
:102680006A46103313CB13C21B681360114B5A6890
:102690000C231340082B19D1910C0733194004A8BF
:1026A000445C0C49C96A0B406946C95CD30308D431
:1026B00063011B1B9801C01AC0000419200209B055
:1026C00030BD0548FDF720FD6043F8E70248F6E716
:1026D0003C3600080010024000127A0070B5050078
:1026E0000C004D4B1A68012313408B420BD24A4910
:1026F0000B680122934323430B600B681A40A242EC
:1027000001D0012070BD2B689B0706D5434A536852
:10271000F0218B43A9680B4353602B68DB074BD533
:102720006B68012B20D0022B24D03C4A1268920700
:102730006FD53A494A680320824313434B60FFF741
:10274000F1F906006B68012B1AD0022B26D0334B0F
:102750005B680C221A422FD0FFF7E4F9801B304B44
:102760009842F4D90320CDE72C4A12689203E0D4B2
:102770000120C7E7294A12689201DAD40120C1E793
:10278000264B5A680C231340042B15D0FFF7CAF9C7
:10279000801B234B9842F3D90320B3E71F4B5A68A1
:1027A0000C231340082B07D0FFF7BCF9801B1C4BF0
:1027B0009842F3D90320A5E7174B1A680123134069
:1027C000A3420BD914490B680122934323430B60A6
:1027D0000B681A40A24201D0012093E72B685B07E7
:1027E00006D50E4A53680F490B40E9680B43536006
:1027F000FFF73CFF094B5A6812090F2313400A4A9E
:10280000D35CD840094B18600020FFF761F9002025
:1028100078E7012076E7C046002002400010024021
:1028200088130000FFF8FFFF8C360008000000202E
:10283000014B18687047C046000000200368DA6842
:1028400001210A43DA60026813680B431360002019
:102850007047704770477047704710B504000368B1
:102860001A6992070FD5DA6892070CD503225242F3
:102870001A610123037703689B699B0763D0FFF705
:10288000E9FF0023237723681A69520712D5DA6813
:1028900052070FD5052252421A610223237723687B
:1028A0009A69C0239B001A4253D02000FFF7D2FF41
:1028B0000023237723681A69120710D5DA681207F4
:1028C0000DD5092252421A61042323772368DB695C
:1028D0009B0745D02000FFF7BDFF00232377236827
:1028E0001A69D20612D5DA68D2060FD511225242E1
:1028F0001A61082323772368DA69C0239B001A42F0
:1029000035D02000FFF7A6FF0023237723681A693C
:10291000D20702D5DA68D20730D423681A691206C2
:1029200002D5DA68120630D423681A69520602D535
:10293000DA68520630D423681A69920602D5DA683A
:10294000920630D410BDFFF784FF2000FFF783FF0D
:1029500097E72000FFF77DFF2000FFF77CFFA7E748
:102960002000FFF776FF2000FFF775FFB5E7200096
:10297000FFF76FFF2000FFF76EFFC5E7022252420C
:102980001A61200000F0FEF8C7E7812252421A6166
:10299000200000F06CF8C7E7412252421A61200083
:1029A000FFF75AFFC7E7212252421A61200000F0C8
:1029B0005DF8C7E703681A4A904202D0194A90426C
:1029C00003D1702293434A681343154A90420BD0B7
:1029D000144A904208D0144A904205D0134A9042BB
:1029E00002D0134A904203D1124A1340CA681343DB
:1029F000802293434A69134303608B68C3620B6868
:102A00008362074B984205D0084B984202D0084B8E
:102A1000984201D10B690363012343617047C046AB
:102A2000002C014000040040002000400044014010
:102A300000480140FFFCFFFF70B5041E14D03D2389
:102A4000C35C002B0AD03D2502236355211D20685D
:102A5000FFF7B0FF01236355002070BD3C33002217
:102A6000C25400F029FDEEE70120F6E770477047F9
:102A7000F0B589B01422002103A800F0CBFD1B4B58
:102A800059698020C003014359615A69024001928B
:102A9000019A5A69802189020A435A615B690B4095
:102AA0000293029B124F002203213800FFF7AEFB76
:102AB000104D002229009020C005FFF7A7FB03233B
:102AC00003930126049600240594069403A9380074
:102AD000FFF7D6FA039504960594069403A990206F
:102AE000C005FFF7CDFA09B0F0BDC04600100240A6
:102AF000001400487F06000010B584B00C220021AD
:102B000001A800F087FD134C134B23600023636082
:102B10000822A260E360073A226104216161A36197
:102B2000E36123626362C221FF31A162E362236336
:102B300062632000FFF762F80723019380235B01A3
:102B4000029380235B05039301A92000FFF7A8F9F6
:102B500004B010BDC40000200024014010B5064898
:102B6000064B0360064A426000238360C260036133
:102B70008361FFF761FF10BD84000020002000404A
:102B80008303000070B59A4B1D689A4B1C68211C8A
:102B9000281CFDF76BFB002800D190E0944B59688E
:102BA000201CFDF74FFB002800D188E0904B99686E
:102BB000201CFDF747FB002800D180E08C4BD96832
:102BC000201CFDF73FFB002800D178E0884B1969F5
:102BD000201CFDF737FB002800D170E0844B5969B9
:102BE000201CFDF72FFB002869D0814B9969201C20
:102BF000FDF728FB002862D07D4BD969201CFDF72A
:102C000021FB00285BD07A4B196A201CFDF71AFBC8
:102C1000002854D0764B596A201CFDF713FB00287E
:102C20004DD0734B996A201CFDF70CFB002846D051
:102C30006F4BD96A201CFDF705FB00283FD06C4B79
:102C4000196B201CFDF7FEFA002838D0684B596B31
:102C5000201CFDF7F7FA002831D0654B996B201C3A
:102C6000FDF7F0FA00282AD0614BD96B201CFDF744
:102C7000E9FA002823D05E4B196C201CFDF7E2FA1C
:102C800000281CD05A4B596C201CFDF7DBFA002899
:102C900015D0574B996C201CFDF7D4FA00280ED0A4
:102CA000534BD96C201CFDF7CDFA002807D0FE212C
:102CB0008905201CFDF7EEFA4E4B186070BD211CF3
:102CC000281CFDF7BFFA0028F8D0494B5968201C92
:102CD000FDF7CCFA0028F1D0454B9968201CFDF790
:102CE000C5FA0028EAD0424BD968201CFDF7BEFA8D
:102CF0000028E3D03E4B1969201CFDF7B7FA0028E5
:102D0000DCD03B4B5969201CFDF7B0FA0028D5D028
:102D1000374B9969201CFDF7A9FA0028CED0344B17
:102D2000D969201CFDF7A2FA0028C7D0304B196AD8
:102D3000201CFDF79BFA0028C0D02D4B596A201C9F
:102D4000FDF794FA0028B9D0294B996A201CFDF7A9
:102D50008DFA0028B2D0264BD96A201CFDF786FADE
:102D60000028ABD0224B196B201CFDF77FFA0028FE
:102D7000A4D01F4B596B201CFDF778FA00289DD07A
:102D80001B4B996B201CFDF771FA002896D0184B4D
:102D9000D96B201CFDF76AFA002800D18EE7144B8E
:102DA000196C201CFDF762FA002800D186E7104B51
:102DB000596C201CFDF75AFA002800D17EE70C4B15
:102DC000996C201CFDF752FA002800D176E7084BD9
:102DD000D96C201CFDF74AFA002800D16EE7FE21CD
:102DE0008905201CFDF7E8FD024B186066E7C04628
:102DF000300000202000002010B590B02C220021CF
:102E000005A800F007FC102410220021684600F0FD
:102E100001FC12230493113B0793099308940A942D
:102E200004A8FFF7F9F90723009300230193029305
:102E3000A023DB00039300216846FFF74FFC10B08E
:102E400010BD0000F8B506000D009024E405002236
:102E500008212000FFF7DAF9002204212000FFF703
:102E6000D5F9002202212000FFF7D0F9002201212C
:102E70002000FFF7CBF9012220212000FFF7C6F93F
:102E8000012240212000FFF7C1F980210122C90061
:102E90002000FFF7BBF98021012289002000FFF705
:102EA000B5F9DB4F012202213800FFF7AFF901220B
:102EB00001213800FFF7AAF9012210212000FFF7B5
:102EC000A5F9022E19D00ADD032E1DD0042E45D1FE
:102ED000902001220121C005FFF798F907E0012E9B
:102EE0003CD1902001220821C005FFF78FF90B2D5E
:102EF00034D8AD00C74B5B599F4690200122042176
:102F0000C005FFF783F9F2E7902001220221C005F6
:102F1000FFF77CF9EBE79024E40500222021200054
:102F2000FFF774F9002240212000FFF76FF980219C
:102F30000022C9002000FFF769F9802100228900E2
:102F40002000FFF763F9B24C002202212000FFF7B6
:102F50005DF9002201212000FFF758F90120FEF75A
:102F6000E7FD9024E405002208212000FFF74EF938
:102F7000002204212000FFF749F90022022120004D
:102F8000FFF744F9002201212000FFF73FF9012259
:102F900020212000FFF73AF9012240212000FFF70D
:102FA00035F980210122C9002000FFF72FF9802187
:102FB000012289002000FFF729F9954D0122022105
:102FC0002800FFF723F9012201212800FFF71EF94D
:102FD000012210212000FFF719F9F8BD9024E40523
:102FE000002240212000FFF711F980210022C900B2
:102FF0002000FFF70BF9B1E79024E405002220211F
:103000002000FFF703F9002240212000FFF7FEF81F
:10301000002210212000FFF7F9F8002202217C484D
:10302000FFF7F4F88021002289002000FFF7EEF876
:1030300094E79024E405002220212000FFF7E6F821
:10304000002240212000FFF7E1F80022102120009B
:10305000FFF7DCF880210022C9002000FFF7D6F836
:103060008021002289002000FFF7D0F876E7902425
:10307000E405002240212000FFF7C8F800221021BB
:103080002000FFF7C3F8002201216148FFF7BEF8D6
:1030900080210022C9002000FFF7B8F85EE79024E5
:1030A000E405002220212000FFF7B0F800220121D2
:1030B0005748FFF7ABF8002210212000FFF7A6F8D1
:1030C00080210022C9002000FFF7A0F88021002203
:1030D00089002000FFF79AF840E79024E4050022D9
:1030E00020212000FFF792F8494D002201212800FD
:1030F000FFF78CF8002210212000FFF787F88021CD
:103100000022C9002000FFF781F8002202212800D8
:10311000FFF77CF88021002289002000FFF776F875
:103120001CE79024E405002220212000FFF76EF820
:10313000002240212000FFF769F880210022C90009
:103140002000FFF763F809E79024E405002220211E
:103150002000FFF75BF8002240212000FFF756F81F
:1031600080210022C9002000FFF750F880210022B2
:1031700089002000FFF74AF8254D0022022128008F
:10318000FFF744F8002201212800FFF73FF8002252
:1031900010212000FFF73AF8E0E69024E405002231
:1031A00020212000FFF732F8002240212000FFF705
:1031B0002DF880210022C9002000FFF727F8802188
:1031C000002289002000FFF721F8002210212000B2
:1031D000FFF71CF8002201210D48FFF717F8BDE6A4
:1031E0009024E405002220212000FFF70FF80022A0
:1031F00040212000FFF70AF8002210212000FFF7ED
:1032000005F8002201210248FFF700F8A6E6C046B3
:10321000001400485C3600089024E40500222021B8
:103220002000FEF7F3FF094D002201212800FEF7E0
:10323000EDFF002202212800FEF7E8FF8021002296
:1032400089002000FEF7E2FF88E6C046001400482F
:10325000F8B506000C009025ED0500220821280095
:10326000FEF7D4FF002204212800FEF7CFFF002242
:1032700002212800FEF7CAFF002201212800FEF7E4
:10328000C5FF012220212800FEF7C0FF01224021B6
:103290002800FEF7BBFF80210122C9002800FEF7AD
:1032A000B5FF8021012289002800FEF7AFFF01222F
:1032B00002212848FEF7AAFF012201212548FEF736
:1032C000A5FF012210212800FEF7A0FF092C00DC39
:1032D000270023000A3B092B39D81F0001212300B6
:1032E000143B092B01D81F00022123001E3B092B90
:1032F00001D81F0003212300283B092B01D81F0000
:1033000004212300323B092B01D81F000521230093
:103310003C3B092B01D81F0006212300463B092B0B
:1033200001D81F0007212300503B092B01D81F00A3
:10333000082123005A3B092B01D81F000821300027
:10334000FFF780FD701C3900FFF77CFDF8BD002100
:10335000C5E7C0460014004870B5FEF7CBFBFFF789
:103360004BFDFFF785FBFFF7C7FBFFF7F7FB234894
:10337000FEF702FD2248FFF761FA0FE0214B1868C3
:10338000FDF7DEFC01000120FFF762FF0A210320A8
:10339000FFF758FD0B210420FFF754FD6421174867
:1033A000FEF71AFD0028E9D1144D2800FEF774FD40
:1033B000154CFDF7E5FC20602800FEF7DDFC2068D9
:1033C000FEF792FA114A124BFEF71CF80022114B3D
:1033D000FDF716FDFEF7DAFA0F4B18600F4D2C685B
:1033E0000F49FDF7B7F9A2000E4BD05001342C6005
:1033F000142CC3DD00222A60C0E7C046C4000020B0
:1034000084000020200000202C00002066666666F4
:1034100066660A4000F88F402800002080000020E7
:103420000000C8423000002082B00A4B9969012296
:103430001143996199690A400092009ADA698021E2
:1034400049050A43DA61DB690B400193019B02B035
:103450007047C0460010024010B588B00400142226
:10346000002103A800F0D6F82268114B9A4201D03F
:1034700008B010BD0F4B996980208000014399610D
:103480009A6902400192019A5A69802189020A438D
:103490005A615B690B400293029B802303937D3B3F
:1034A00004937138FF3803A9C005FEF7E9FDDFE793
:1034B000002401400010024000B583B002680C4BAC
:1034C0009A4201D003B000BD0A4AD1698020400071
:1034D0000143D161D36903400193019B0022002184
:1034E000ED38FEF777FD1320FEF7A4FDEAE7C046AE
:1034F00000200040001002407047FEE77047704710
:1035000010B5FEF707FB10BD10B50248FFF7A5F98F
:1035100010BDC04684000020114B1A6801210A43E7
:103520001A605A680F4802405A601A680E480240F2
:103530001A601A680D4802401A605A680C48024026
:103540005A60DA6A0F208243DA621A6B0948024035
:103550001A635A6B8A435A6300229A607047C046C6
:10356000001002400CB8FF08FFFFF6FEFFFFFBFF54
:10357000FFFFC0FFECFEFFFF0D4885460D480E49DA
:103580000E4A002302E0D458C4500433C4188C42BD
:10359000F9D30B4A0B4C002301E013600432A24222
:1035A000FBD3FFF7B9FF00F011F8FFF7D5FEFEE7F8
:1035B0000010002000000020040000206C370008EC
:1035C0000400002010010020FEE7000070B5002676
:1035D0000C4D0D4C641BA410A64209D1002600F02E
:1035E00021F80A4D0A4C641BA410A64205D170BDF7
:1035F000B300EB5898470136EEE7B300EB58984715
:103600000136F2E7643700086437000864370008C1
:103610006837000803001218934200D170471970F0
:103620000133F9E7F8B5C046F8BC08BC9E467047C0
:0C363000F8B5C046F8BC08BC9E467047C8
:10363C0002030405060708090A0B0C0D0E0F1010E7
:10364C000102030405060708090A0B0C0D0E0F10E6
:10365C00162F0008DC2F0008F82F00083230000865
:10366C006E3000089E300008DA3000082231000865
:10367C00483100089A310008E0310008183200087F
:10368C000000000000000000010203040607080906
:10369C0000000000010203044C080008F6070008B3
:1036AC00F607000824090008F2070008F2070008D2
:1036BC001A09000824090008F20700081A09000872
:1036CC00F207000824090008280900082809000846
:1036DC002809000830090008A4100008160F00087B
:1036EC005A0F0008BE0E00085A0F00084A100008B6
:1036FC005A0F0008BE0E0008160F0008160F00081F
:10370C004A100008BE0E0008B60E0008B60E0008DF
:10371C00B60E000858100008BC150008BE140008AE
:10372C00BE140008DC170008B8140008B814000810
:10373C00C4170008DC170008B8140008C4170008E8
:10374C00B8140008DC170008D2170008D2170008BC
:08375C00D2170008E017000875
:04376400E900000870
:04376800C100000894
:04376C0000127A00CD
:040000050800357941
:00000001FF
